:100000000C9447000C9457000C9457000C94E30692
:100010000C9457000C9457000C9457000C94570004
:100020000C9457000C94D2060C9457000C94570073
:100030000C9457000C9457000C9485000C945700B6
:100040000C9457000C9457000C9457000C945700D4
:100050000C9457000C94BA000C9457000C94570061
:100060000C94B5030C9457000C9447004F081F08DC
:10007000520856085E08640868086B086E08710824
:100080001F081F081F081F081F081F0874081124D5
:100090001FBECFEFD8E0DEBFCDBF21E0A0E0B1E0D2
:1000A00001C01D92AD38B207E1F70C94E5070C943E
:1000B00000001092470110924B0110924A011092D9
:1000C0004601109249011092480181E080934C0151
:1000D00088B1887F88B9EEE7F0E08081876080830F
:1000E00082E480937C0083E080937B009FE8909380
:1000F0007A0085BB82E080936E0016BC93EC97BDBE
:1001000018BC84BD85E085BD08951F920F920FB67F
:100110000F9211242F933F934F935F936F937F938D
:100120008F939F93AF93BF93EF93FF9367E086E026
:100130000E943001AC014F5F5F4F67E086E00E9494
:10014000420182E480937C00EAE7F0E080818064F1
:100150008083FF91EF91BF91AF919F918F917F919C
:100160006F915F914F913F912F910F900FBE0F9024
:100170001F9018951F920F920FB60F9211242F9374
:100180003F934F935F936F937F938F939F93AF931F
:10019000BF93EF93FF934091780050917900809145
:1001A0007C008F70813001F158F0823019F5509346
:1001B00049014093480181E08093460180E40CC0EE
:1001C00050934B0140934A0181E080934701809115
:1001D0004C01882379F081E480937C0080917A003F
:1001E000806480937A0006C010924C0165E184E13E
:1001F0000E944201FF91EF91BF91AF919F918F912A
:100200007F916F915F914F913F912F910F900FBE12
:100210000F901F90189580E280936D010E94530407
:100220000C94ED0180E4EDE4F1E0DF011D928A958C
:10023000E9F781E080934D0180934E0182E0809345
:1002400050010E947F0181110AC040E450E060E249
:1002500070E08DE691E00E94C0080C940B010895B7
:100260009FB7F8949FBFE82FF0E0E35BFE4F8081DB
:1002700090E0982F8827E62FF0E0E35BFE4F208187
:10028000822B08959FB7F894E82FF0E0E35BFE4FD0
:100290005083E62FF0E0E35BFE4F40839FBF08955D
:1002A0000F931F93CF93DF93CDB7DEB760970FB651
:1002B000F894DEBF0FBECDBF40E150E06FEF70E0BD
:1002C000CE0101960E94C00800E010E040E150E03D
:1002D000B801CE0101960E94D708005F1F4F01159B
:1002E00084E0180799F781E060960FB6F894DEBFB6
:1002F0000FBECDBFDF91CF911F910F910895CF9386
:10030000DF9300D0CDB7DEB742E050E060E070E0B0
:10031000CE0101960E94C70889818230A1F440E293
:1003200050E062E070E08DE691E00E94C7082A810B
:1003300092E0EDE6F1E08191980F81E0ED38F80769
:10034000D1F781E0291380E00F900F90DF91CF91DA
:100350000895CF93DF9300D0CDB7DEB782E08983D5
:10036000EDE6F1E09191890F91E0ED38F907D1F7D1
:100370008A8342E050E060E070E0CE0101960E9486
:10038000D70840E250E062E070E08DE691E00E9424
:10039000D70881E00F900F90DF91CF91089584B737
:1003A000877F84BFE0E6F0E08081886180831082EF
:1003B0000895809152018E7F809352010E949C0487
:1003C00088E880936000FFCF10921D0110921C01FD
:1003D00010921B0110921A010895CF93DF93CDE480
:1003E000D1E081E089A340E056E063E282E20E942E
:1003F000420140E05CE065E284E20E94420140E0AC
:1004000050E067E286E20E94420140E650E06BE283
:100410008AE20E94420140EA53E06DE28CE20E94CF
:1004200042011EA6DF91CF9108950F931F93CF93A2
:10043000DF93EC01909319018093180180911A01C8
:1004400090911B019E01281B390B309317012093BB
:100450001601D0931B01C0931A0161E180E10E9453
:100460003001909315018093140163E182E10E94B1
:10047000300190931301809312016BE28AE20E9493
:10048000300190931101809310016DE28CE20E9483
:10049000300190930F0180930E0180917B0188239E
:1004A000A9F10FEF13E0A8014C1B5D0B69E088E098
:1004B0000E944201409116015091170151954195BA
:1004C00051096BE08AE00E944201809114019091F1
:1004D00015019801281B390B309315012093140145
:1004E00080911001909111019801281B390B3093D4
:1004F00011012093100180910E0190910F01081BB2
:10050000190B10930F0100930E010DC0AE0169E0AD
:1005100088E00E94420140911601509117016BE062
:100520008AE00E94420180916E0190E090930D015B
:1005300080930C01809114019091150120911C0170
:1005400030911D018217930721F4C0911801D091B9
:10055000190190931D0180931C012091100130918D
:1005600011018217930724F430931501209314018D
:1005700080910E0190910F0120911401309115018D
:100580008217930724F490931501809314018091AE
:100590001401909115018C1B9D0B90930B0180937E
:1005A0000A0180911201909113012091160130915E
:1005B0001701821B930B909309018093080163E25A
:1005C00082E20E943001909307018093060165E268
:1005D00084E20E943001FC019093050180930401A4
:1005E0001092000110920101109202011092030179
:1005F000A0910A01B0910B0140910C0150910D01A5
:100600004A175B0734F0519541955109A417B50776
:1006100074F420910601309107010E949F086093B5
:100620000001709301018093020190930301A09156
:100630000801B09109019F010E949F0800910001EB
:10064000109101012091020130910301DC01CB01E5
:10065000800F911FA21FB31F892F9A2FAB2FBB278B
:10066000A7FDBA958F3F9105A105B10531F02CF09A
:100670008FEF90E0A0E0B0E00AC081303FEF930739
:10068000A307B30724F481E09FEFAFEFBFEF8093A0
:10069000000190930101A0930201B09303018091A6
:1006A000000190910101DF91CF911F910F91089569
:1006B00010922E01EEE1F1E01192119281E0EE3202
:1006C000F807D1F740E050E06DE08CE00C94420177
:1006D00020912E01E22FF0E0EE0FFF1FE25EFE4FB1
:1006E000918380832F5F277020932E01EEE1F1E04C
:1006F00040E050E081919191480F591F81E0EE3226
:10070000F807C1F783E0569547958A95E1F76DE0C4
:100710008CE00C9442011092330110923401880F46
:100720008093BA008FEF8093BB0085EC8093BC0070
:10073000089590913401809133019817D1F38091FD
:1007400033018F5F837080933301E0913301F0E0D8
:10075000E15DFE4F80810895209134019091330135
:1007600081E0291301C080E008951F920F920FB617
:100770000F9211248F939F93EF93FF938091B90071
:10078000803A09F47EC050F48036B9F120F481112A
:1007900078C085ED77C0803899F173C0803C09F44A
:1007A00070C028F4883A51F0883B41F06AC0883C18
:1007B00009F467C0883F09F467C063C0E09137015E
:1007C000EF77E03328F0E03678F0E03730F4E053AC
:1007D000F0E0E35BFE4F808108C0E054F0E0E35BB3
:1007E000FE4FE081E03760F380E0909137019F5F3A
:1007F000909337018093BB0044C01092360141C0F2
:100800008091BB0090913601992341F09130C9F558
:10081000E09137019091520192701CC087FD06C093
:100820008093370181E0809336012BC09091340191
:100830009F5F937090933401E0913401F0E0E15DAB
:10084000FE4F80831EC0E055F0E0E35BFE4FE08189
:10085000E03790F4EF77E03178F0E03248F0992318
:1008600059F0E03328F0E03638F0E03760F7E05335
:10087000F0E0E35BFE4F8083809137018F5F8093D0
:10088000370185EC8093BC00FF91EF919F918F9190
:100890000F900FBE0F901F90189580E000008F5FA3
:1008A0008431E1F7089540E450E069E288E20C9475
:1008B000420169E288E20E943001909339018093FD
:1008C00038018BB1837F8BB98BB180698BB98AB1C9
:1008D0008C698AB985B1897F85B984B1866084B90C
:1008E0001092850010928400A0E8B0E01C92E1E82C
:1008F000F0E010821092820010926F008091380117
:100900009091390124E0880F991F2A95E1F701970A
:10091000909387008093860010928900109288003F
:1009200010928B0010928A001C9281E18083EDE48A
:10093000F1E0168617860895F89480913B018111A5
:1009400004C080913A01882389F08BB180698BB90A
:100950001092800085B1897F85B90E944D048BB1CA
:100960008C608BB910923B0110923A011092890071
:100970001092880010928B0010928A0078948091D7
:100980003B0180935B0180913A0180935C01089563
:10099000CF92DF92EF92FF920F931F93CF93DF934B
:1009A00000D000D0CDB7DEB78C016B0169E288E2E0
:1009B0000E9430012091380130913901821793074C
:1009C000A1F18BB1837F8BB90E944D04809180008F
:1009D0008F7380938000809180008F7C8093800053
:1009E00085B1897F85B910923B0110923A0169E285
:1009F00088E20E943001909339018093380144E0ED
:100A0000880F991F4A95E1F701979093870080938B
:100A10008600109285001092840010928900109236
:100A2000880010928B0010928A0080917B018823AD
:100A300001F16DE28CE20E9430017C016BE28AE2FE
:100A40000E943001A701E11424E0F20610F04FEFFC
:100A500053E0BC01611584E0780710F06FEF73E09C
:100A60002FEF33E0C901841B950BAC01261B370B1C
:100A700017C06BE28AE20E9430017C016DE28CE2D9
:100A80000E943001A701E11424E0F20610F04FEFBC
:100A900053E09C01211584E0380710F02FEF33E07C
:100AA0000417150710F4D7FC06C02017310728F4E7
:100AB0001C141D0414F4C12CD12C8091520180FF10
:100AC000AAC0D7FE49C01C2D119520913801309144
:100AD0003901C901A0E0B0E034E0880F991FAA1FD6
:100AE000BB1F3A95D1F79C01AD0121503109410955
:100AF0005109A12FB0E00E94A6082FEF30E040E09E
:100B000050E00E947708F89480913B01811119C050
:100B10008BB180698BB95B981092800085B1897F19
:100B200085B929833A834B835C830E944D0480916D
:100B300080008068809380005A9A10923A013A812E
:100B4000298110933B0130938900209388001092F3
:100B50008B0010928A0049C0C114D10409F45BC013
:100B60001C2D2091380130913901C901A0E0B0E07D
:100B700024E0880F991FAA1FBB1F2A95D1F79C015B
:100B8000AD012150310941095109AC2DB0E00E945D
:100B9000A6082FEF30E040E050E00E947708F8947C
:100BA00080913A01811117C08BB180698BB95A9835
:100BB0001092800085B1897F85B929833A834B8360
:100BC0005C830E944D0480E2809380005B9A1092C7
:100BD0003B013A81298110933A01109289001092C9
:100BE000880030938B0020938A00789480913B0199
:100BF00080935B0180913A0180935C010F900F908C
:100C00000F900F90DF91CF911F910F91FF90EF9078
:100C1000DF90CF9008950F900F900F900F90DF917D
:100C2000CF911F910F91FF90EF90DF90CF900C9498
:100C30009C041092440110924101109240011092C4
:100C4000450167E086E00E94300190934301809364
:100C500042011092B00088E080936B0010926C000B
:100C600010926D0081E08093680023982B9808957E
:100C70000F931F93CF93DF9380914401882309F44E
:100C800071C08091400190914101853F914008F4ED
:100C900066C08091400190914101843C994008F0E8
:100CA0005EC08091400190914101865E934097FD26
:100CB00007C0811524E092072CF08FEF93E002C06B
:100CC00080E090E040913C0150913D0160913E01F7
:100CD00070913F018A019B01E3E0359527951795B7
:100CE0000795EA95D1F7401B510B620B730B092E48
:100CF000000CAA0BBB0B480F591F6A1F7B1F4093A8
:100D00003C0150933D0160933E0170933F01F3E03D
:100D10007595679557954795FA95D1F780917B0121
:100D2000882331F08FEF93E09C01241B350BA90140
:100D300061E180E10E94420140E050E063E182E134
:100D40000E9442018091520181608093520167E0CC
:100D500086E00E94300190934301809342011092FB
:100D600044011BC0C0914201D091430167E086E07D
:100D70000E9430018C1B9D0BC39778F0809152012B
:100D80008E7F809352010E949C0467E086E00E945F
:100D900030019093430180934201DF91CF911F91E5
:100DA0000F9108951F920F920FB60F9211248F93F7
:100DB000809145018F5F809345018F910F900FBE09
:100DC0000F901F9018951F920F920FB60F9211243B
:100DD0002F938F939F9380914401811126C01B9B79
:100DE0000BC01092B2001092450182E08093B100D6
:100DF00081E08093700018C01092B100B89B05C0CC
:100E0000809145018F5F809345012091450180913C
:100E1000B20090E0922B909341018093400181E0D9
:100E2000809344011092700087BB9F918F912F9106
:100E30000F900FBE0F901F9018955D98559A0895CA
:100E400055985D9A4D9BFECF089542983A9A089521
:100E50003A98429A08951F93CF93DF93182FC8E0D2
:100E6000D0E00E941D0717FF03C00E94280702C0A0
:100E70000E9425070E942007110F219791F70E94D9
:100E80001D070E9428070E94200786B182FB882741
:100E900080F991E08927DF91CF911F9108955598AE
:100EA0005D9A3A98429A08958F929F92AF92BF921C
:100EB000CF92DF92EF92FF921F93CF93DF931F9217
:100EC000CDB7DEB75B014A0189830E94250789817E
:100ED0000E942B07882341F17501C7018A199B09DC
:100EE00088159905F4F488E0C82ED12C10E00E94F2
:100EF0001D070E9428070E94200786B182FB8827D1
:100F000080F9110F182B81E0C81AD10881F70E94CF
:100F10001D070E9425070E942007F70111937F01FA
:100F2000DCCF740197FE02C0E12CF12C0E94250752
:100F30000E9428078E2D0F90DF91CF911F91FF9077
:100F4000EF90DF90CF90BF90AF909F908F900895DB
:100F5000CF92DF92EF92FF920F931F93CF93DF9385
:100F600000D01F92CDB7DEB77A016A837B83898375
:100F70000E94250789810E942B076A817B81882333
:100F800089F08B01C12CD12CCE14DF046CF4F80154
:100F900081918F010E942B07882331F0FFEFCF1A38
:100FA000DF0AF2CFC12CD12C0E9425070E9428070E
:100FB0008C2D0F900F900F90DF91CF911F910F917B
:100FC000FF90EF90DF90CF90089586E084B989EF8D
:100FD00085B917B88FE788B98CEB8AB983ED8BB9DF
:100FE0000E94CF010E9412010E9459040E945900E0
:100FF0000E94E4010E9458030E94190680916D012D
:101000000E948B0340E050E067E086E00E944201CE
:10101000789410924601409148015091490161E154
:1010200080E10E94420140E050E063E182E10E94E1
:1010300042018091520183608093520111E08091BE
:101040004601882379F00E94380610924601C0912B
:101050004801D0914901CE010E941502BC01CE0188
:101060000E94C80480914701882341F010924701F3
:1010700080914A0190914B010E9468030E94AC0349
:101080008823E9F20E94990390E0FC01E058F109FD
:10109000E131F105A0F6EA5CFF4F0C9499080E943B
:1010A000D901CDCF8091520181600BC08091520156
:1010B0008E7F809352010E949C04C1CF8091520187
:1010C000826080935201BBCF809152018D7FF9CF16
:1010D0000E94A901B4CF0E947F01B1CF0E940B01F1
:1010E000AECF0E945001ABCF10934C01A8CFA1E22C
:1010F0001A2EAA1BBB1BFD010DC0AA1FBB1FEE1F92
:10110000FF1FA217B307E407F50720F0A21BB30BDC
:10111000E40BF50B661F771F881F991F1A9469F758
:1011200060957095809590959B01AC01BD01CF01B4
:101130000895EE0FFF1F0590F491E02D09940E9491
:10114000B108B7FF0895821B930B08950E94B10860
:10115000A59F900DB49F900DA49F800D911D11240B
:101160000895A29FB001B39FC001A39F700D811D80
:101170001124911DB29F700D811D1124911D0895A0
:10118000DC0101C06D9341505040E0F70895DC014F
:10119000CB01FC01F999FECF06C0F2BDE1BDF89A82
:1011A000319600B40D9241505040B8F70895DC01DB
:1011B000CB0103C02D910E94E20841505040D0F76E
:1011C0000895262FF999FECF1FBA92BD81BD20BD8B
:0E11D0000FB6F894FA9AF99A0FBE0196089598
:00000001FF
