S01400004F53426F6F746C6F616465722E7372656363
S11300000C94020011241FBECFEFD8E0DEBFCDBF99
S113001021E0A0E0B1E001C01D92AA38B207E1F7E7
S11300200C9412001F93CF93DF93F89484B7877FC7
S113003084BFE0E6F0E080818861808310821092C2
S11300408901109288010E9451000E94390114BC58
S113005085E085BDC0E0D0E011E00FC00E94CA0178
S1130060A89B0BC0A89A2196C138D10530F0809185
S11300708801811102C0109389018091890188232C
S113008069F314BC15BC16BC87E085BB0E9449010A
S1130090E0E0F0E0099580E090E0DF91CF911F91DE
S11300A0089510928301109282011092810110929E
S11300B08001109284010895AC014078509383012B
S11300C0409382018F7799279093810180938001D7
S11300D0E0E0F1E080E891E0DF012FEF2D93A81735
S11300E0B907E1F7411520E75207D0F407B600FC41
S11300F0FDCFA0E0B1E04E1B5F0B60E09A012A0F38
S11301003B1FF90160FD60935700C895202DE395CE
S1130110C895302D2D933D938A179B0779F712C00C
S1130120DA01B058A11584E0B80760F480E8182E0D
S1130130F999FECFB2BDA1BDF89A119600B401920F
S11301401A94B1F71092840108952091800130919E
S11301508101F901E050FF4F80812F5F3F4F20382C
S1130160310528F430938101209380010895109281
S113017081011092800108952091800130918101C4
S1130180F901E050FF4F80832F5F3F4F2038310546
S113019028F4309381012093800104C010928101DE
S11301A01092800181E08093840108950F931F933E
S11301B0CF93DF9380918401882309F455C0009183
S11301C0820110918301011580E7180708F035C0FA
S11301D083E0F80180935700E89507B600FCFDCF53
S11301E081E180935700E89507B600FCFDCFC0E895
S11301F0D1E0A0E0B1E0B8016250714041E02D913E
S11302003D91CB018A0F9B1F0901FC0140935700CC
S1130210E8951124AC17BD0791F785E0F8018093A8
S11302205700E89507B600FCFDCF81E180935700A5
S1130230E89507B600FCFDCF15C0D801B058A1154C
S113024084E0B80778F4E0E0F1E080E8182E01904B
S1130250F999FECFB2BDA1BD00BC1196FA9AF99AE4
S11302601A94A9F710928401DF91CF911F910F91F5
S113027008951092870110928601109285018EEFE5
S11302808093BA008FEF8093BB0085EC8093BC0011
S113029008951092BA001092BB001092BC00089509
S11302A08091B900883AD1F068F4803619F120F4CD
S11302B0882309F467C06AC0803811F1803A09F4D0
S11302C05BC064C0803C91F018F4883B39F05EC098
S11302D0883C61F0883F09F45CC058C00E94A500C6
S11302E08093BB0085EC8093BC00089585EC8093DB
S11302F0BC0008951092870185EC8093BC0008959A
S11303008091870181110EC08091BB0090E0909391
S113031086018093850181E08093870185EC809339
S1130320BC000895813001F52091BB0080E090E08D
S113033090918501822B909386018093850121E021
S11303402093880122E0209387010E945C00809121
S1130350850190918601019619F481E080938901C9
S113036085EC8093BC0008958091BB000E94BC0082
S113037085EC8093BC00089585EC8093BC000E94BA
S1130380D600089585ED8093BC00089585EC809394
S1130390BC0008958091BC00882314F40E9450018D
S10503A00895BA
S9030000FC
