:100000000C94020011241FBECFEFD8E0DEBFCDBF9D
:1000100021E0A0E0B1E001C01D92AA38B207E1F7EB
:100020000C9478010C9400001092830110928201CC
:100030001092810110928001109284010895CF9353
:10004000DF93DC01A078B0938301A09382018F77C6
:1000500099279093810180938001E0E0F1E08FEF98
:1000600091E0E038F90711F08193FACFA11580E70C
:10007000B807D8F407B600FCFDCFC0E0D1E020E01F
:10008000A050B14030E0CD018C0F9D1F203801F110
:10009000FC0130FD30935700C895802DE395C8953D
:1000A000902D899399932E5FEECFB058A11594E0CF
:1000B000B90770F480E8E0E0F1E0182EF999FECF7E
:1000C000B2BDA1BDF89A119600B401921A94B1F78D
:1000D00010928401DF91CF91089520918001309199
:1000E0008101F901E050FF4F80812F5F3F4F2038A1
:1000F000310528F4309381012093800108951092F6
:100100008101109280010895209180013091810138
:10011000F901E050FF4F80832F5F3F4F20383105BA
:1001200028F4309381012093800104C01092810152
:100130001092800181E0809384010895CF93DF9332
:1001400080918401882309F452C0A0918201B0916A
:100150008301A11580E7B80708F033C083E0FD01F3
:1001600080935700E89507B600FCFDCF81E18093AE
:100170005700E89507B600FCFDCFC0E0D1E080E075
:1001800090E021E069917991AC014A0F5B1F0B016E
:10019000FA0120935700E8951124029680389105C2
:1001A00089F785E0FD0180935700E89507B600FCCC
:1001B000FDCF81E180935700E89507B600FCFDCFA5
:1001C00014C0B058A11584E0B80778F4E0E0F1E07D
:1001D00080E8182E0190F999FECFB2BDA1BD00BCF8
:1001E0001196FA9AF99A1A94A9F710928401DF915C
:1001F000CF91089510928701109286011092850187
:100200008AEA8093BA008FEF8093BB0085EC8093DD
:10021000BC0008951092BA001092BB001092BC006E
:100220000895CF938091B900883AF9F090F4803620
:1002300009F120F4811151C085ED50C08038E9F0FA
:10024000803A09F04AC085EC8093BC00CF910C94B1
:100250009E00803C09F441C018F4883B31F03DC059
:10026000883CD9F1883FE1F138C00E946D0080934D
:10027000BB0033C01092870130C0C0918701C1110B
:100280000BC08091BB0090E0909386018093850124
:1002900081E08093870121C0C130D9F42091BB0057
:1002A00080E090E090918501822B9093860180936D
:1002B0008501C093880122E0209387010E941F00DE
:1002C0008091850190918601019639F4C09389014E
:1002D00004C08091BB000E94840085EC8093BC0028
:1002E000CF9108958091BC0087FD0C941101089571
:1002F0001F93CF93DF93F89484B7877F84BF809157
:100300006000886180936000109260001092890103
:10031000109288010E9414000E94FA0014BC85E02B
:1003200085BDC0E0D0E011E080918901811110C04D
:100330000E947201A89BF8CFA89A2196C138D105D6
:1003400098F3809188018111EFCF10938901ECCF50
:1003500014BC15BC16BC87E085BB0E940A01E0E016
:10036000F0E0099580E090E0DF91CF911F91089532
:00000001FF
